:020000040800F2
:10000000C82C00200D030008CF54000889500008B8
:10001000CD54000871310008FB7200080000000098
:100020000000000000000000000000007502000851
:100030006F32000800000000B902000821580008D3
:1000400027030008270300082703000827030008E8
:1000500027030008270300082703000827030008D8
:100060002703000827030008270300083932000887
:1000700027030008270300082703000827030008B8
:1000800027030008270300082703000879720008E7
:1000900085720008270300082703000827030008CB
:1000A0002703000827030008270300082703000888
:1000B00027030008D5580008270300082703000875
:1000C0002703000827030008270300082703000868
:1000D0002703000827030008270300082703000858
:1000E00027030008270300082703000800F002F890
:1000F00000F0B0F80AA090E8000C82448344AAF112
:100100000107DA4501D100F0A5F8AFF2090EBAE80F
:100110000F0013F0010F18BFFB1A43F0010318473B
:10012000848D0000A48D00000A444FF0000C10F8EC
:10013000013B13F0070408BF10F8014B1D1108BF65
:1001400010F8015B641E05D010F8016B641E01F805
:10015000016BF9D113F0080F1EBF10F8014BAD1C55
:100160000C1B09D16D1E58BF01F801CBFAD505E073
:1001700014F8016B01F8016B6D1EF9D59142D6D3CD
:10018000704700000023002400250026103A28BFF5
:1001900078C1FBD8520728BF30C148BF0B607047F9
:1001A0006E2900F04982702900F09383662908F0D7
:1001B000AE84652908F0AB84672908F0A88461291A
:1001C00008F0A78403681B0A28BF41F08001692951
:1001D00000F0F681642900F0F381752900F0F081C8
:1001E0006F2900F02183782900F05F83E92900F06E
:1001F000BB82E42900F0B882F52900F0B582EF292E
:1002000000F01E83F82900F05E830368DB0928BF35
:1002100041F08001632901F0BB80732901F0C080A7
:10022000E32901F0CB80F32901F0D0800020704752
:100230001FB501F041F904000020002108F00AF880
:10024000401C60600020002107F0EEFFE0601FBD51
:1002500010B510BD01F002F91146FFF7E9FF07F0F4
:10026000C7F901F02DFC03B4FFF7F2FF03BC01F066
:1002700093FE0000224B19680868B0E8F00F80F385
:100280000988BFF36F8F4FF0000080F311884EF0A4
:100290000D0E70470000000006480068006880F3FB
:1002A000088862B661B6BFF34F8FBFF36F8F00DF70
:1002B00000BF00BF08ED00E0EFF30980BFF36F8FD0
:1002C0000F4B1A6820E9F00F106008B54FF050008E
:1002D00080F31188BFF34F8FBFF36F8F07F004FED9
:1002E0004FF0000080F31188BDE8084019680868E5
:1002F000B0E8F00F80F30988BFF36F8F704700BF3D
:1003000090000020EFF30580704700000948804707
:1003100009480047FEE7FEE7FEE7FEE7FEE7FEE7E7
:10032000FEE7FEE7FEE7FEE704480549054A064BFF
:1003300070470000D1580008ED000008C8240020D4
:10034000C82C0020C8280020C82800207CB51D46E5
:1003500016460C00009001D02044401E074B7B4401
:100360002A4669460190304600F07FF905461CB1E7
:100370000020694600F08CF928467CBD3903000056
:1003800030B505460B462A4613F8014B12F8010B0F
:1003900008B1A042F8D01CB1002802D06D1CF1E7D2
:1003A000284630BD032A40F2308010F0030C00F0E4
:1003B000158011F8013BBCF1020F624498BF11F89F
:1003C00001CB00F8013B38BF11F8013BA2F1040258
:1003D00098BF00F801CB38BF00F8013B11F00303D0
:1003E00000F02580083AC0F0088051F8043B083A34
:1003F00051F804CBA0E80810F5E7121D5CBF51F8D6
:10040000043B40F8043BAFF30080D20724BF11F84F
:10041000013B11F801CB48BF11F8012B24BF00F8B4
:10042000013B00F801CB48BF00F8012B704710B525
:10043000203AC0F00B80B1E81850203AA0E81850DC
:10044000B1E81850A0E81850BFF4F5AF5FEA027C9D
:1004500024BFB1E81850A0E8185044BF18C918C00C
:10046000BDE810405FEA827C24BF51F8043B40F8AD
:10047000043B08BF7047D20728BF31F8023B48BF92
:1004800011F8012B28BF20F8023B48BF00F8012BD0
:1004900070474FF0000200B5134694469646203947
:1004A00022BFA0E80C50A0E80C50B1F12001BFF42D
:1004B000F7AF090728BFA0E80C5048BF0CC05DF893
:1004C00004EB890028BF40F8042B08BF704748BFE1
:1004D00020F8022B11F0804F18BF00F8012B704755
:1004E00070477047704710B500F012FB006810BDF0
:1004F00010B5044600F00CFB046010BD70B5044656
:1005000085690068C10601D5302600E02026C007B5
:1005100007D070BDD4E9012130469047206A401CC5
:1005200020626D1EF6D570BD70B5044685690078F1
:10053000C00707D170BDD4E9012120209047206A6F
:10054000401C20626D1EF6D570BD09684A0501D5B4
:1005500040B27047C905FCD500B2704709684A052A
:1005600001D5C0B27047C905FCD580B2704770B5DF
:100570000C460546012A05D02878800600D5EA6990
:10058000002302E0012305E05B1C934202D2E05C01
:100590000028F9D1A869E618C01AA861286A184489
:1005A00028622846FFF7AAFF04E0D5E9012114F8E4
:1005B000010B9047B442F8D32846FFF7B5FF70BD52
:1005C0002DE9F0410646002410687529314616A52C
:1005D00010D0FFF7BAFF002802DA404213A507E067
:1005E00031688A0701D512A502E0490704D511A593
:1005F000012401E0FFF7B2FF00210A2206F12407DF
:1006000009E0B0FBF2FCB0FBF2F302FB1C0030305F
:1006100078541846491C0028F3D123462A46304610
:10062000BDE8F04100F0C6BA000000002D00000057
:100630002B0000002000000011680268006A5305CA
:1006400001D508700AE0D30501D5088006E013063D
:1006500003D5C217C1E9000200E00860012070471D
:1006600001694A1C02610878704700B58FB0CDE976
:1006700001310021059105497944CDE90310114666
:10068000684600F031F90FB000BD0000E5FFFFFF44
:100690000A6802F8010B0A607047D1E900239A4208
:1006A00002D2531C0B601070704700002DE9FF5FF1
:1006B00015468A460446DFF8AC80F8440027D8E99E
:1006C00000103E46CDE9001010E03AF816106A46D8
:1006D00002A800F09FFE411C07D02178890603D5AF
:1006E000E269391891420DD80744761C20788006BB
:1006F00002D5E069B84205DDAE42E6DB3AF8160005
:100700000028E2D1A069C01BA0612046FFF7F6FED9
:10071000D8E90010CDE90010002017E03AF81810D1
:100720006A4602A800F076FEB0F1FF3F81460BD08A
:1007300000250DF1080B05E0D4E901211BF80500A7
:1007400090476D1C4D45F7D308F10100B04280463B
:10075000E4DB206A384420622046FFF7E5FEBDE86E
:10076000FF9F00002A8600002DE9F0418046D21D3F
:1007700022F007020025D2E90002F52915A614D0BF
:10078000011E72F1000106DA0023D0EB030063EBD7
:10079000020211A608E0D8F800108B0701D50FA6B9
:1007A00002E0490701D50EA601251146002408F1F3
:1007B000240704E000F0B0F930323A55641C50EAE6
:1007C0000102F7D12B46324621464046BDE8F041B2
:1007D00000F0F0B9000000002D0000002B00000028
:1007E0002000000030B4002100F1240408E002F0F1
:1007F0000705D208303542EA4372DB086554491CCC
:1008000052EA0305F3D10468002310A2250708D596
:1008100004F020040C4304D0C46901230CA2641E1C
:10082000C46130BC00F0C6B910B50446214610685A
:10083000FFF794FE02462046BDE810400023D1E7B2
:10084000D21D22F00701D1E90023CBE70000000010
:1008500030000000F0B40D460188090502D5214C96
:100860007C4402E01F4C7C440E34002100F124063D
:1008700008E002F00F071209E75D42EA03721B0964
:100880007754491C52EA0307F3D102780023120778
:1008900004D5702D06D009B1022311342246F0BCD4
:1008A00000F088B901231034F8E770B504460D460E
:1008B00021461068FFF752FE024629462046BDE851
:1008C00070400023C6E7D21D22F00703D3E90023BE
:1008D000C0E70368126843F0200303600823C36184
:1008E0000023B7E78C8400002DE9F05F89460446B9
:1008F0004FF0000ADFF874B1FB44C0F820A0204696
:10090000E1688847002874D0252806D0D4E9012161
:100910009047206A401C2062F1E700265F4620468F
:10092000E16888472028054607DB312D05D2781974
:1009300010F8200C08B10643F1E7B00701D526F006
:100940000406C4F81CA00027C4F818A02A2D09D05A
:10095000284606F0BCFD38B304EB8708303DC8F8E4
:10096000185019E059F8041B204604EB87029161E6
:10097000E1688847012F054618D1E069002820DA90
:1009800026F020061DE0D8F8180000EB800005EBEB
:1009900040003038C8F818002046E168884705460E
:1009A00006F095FD0028EED1012F0AD02E2D08D19A
:1009B0002046E16888477F1C0546022F46F0200646
:1009C000C4DBA069002803DA404246F00106A061BA
:1009D000F00701D026F010066C2D0BD0682D09D041
:1009E0004C2D39D06A2D35D0742D35D07A2D33D099
:1009F00016E038E0E1682F4620468847B8420546B1
:100A000009D16C2F26D04FF48060E1680643204660
:100A10008847054604E06C2F1AD04FF480700643D7
:100A20000DB3A5F14100192802D8203546F400661F
:100A30004A462946204626604E46FFF7B1FB80B164
:100A400001280BD0F61D26F0070000F1080956E733
:100A50004020E4E78020D8E70020D6E706F104092B
:100A60004DE7284652E7206ABDE8F09F1C8400004D
:100A70000FB4002300B589B00CA900910B99CB608D
:100A8000204B7B440693204B7B44079304236FF059
:100A90000042CDE901321D4A7A446B460892024673
:100AA000002008F0BEF809B05DF814FB70B50646EA
:100AB0004FF0FF3015460C46324686B00091CDE926
:100AC000010169460020049004A8FFF7D1FF034606
:100AD0000498211825B108B10A4600E022462A6090
:100AE00000280DD0002B02DD0098884208D0324645
:100AF000081B69460094CDE9010404A8FFF7B8FF7C
:100B000006B070BD4F090000670900000701000032
:100B1000004870476424002030B5B0F10A024FEA63
:100B2000900E71F100034EEA817EB0EB0E0061EB96
:100B300091014FEA101E4EEA017E10EB0E0041EBD0
:100B400011114FEA102E4EEA016E10EB0E0041EB30
:100B500011214FEA104E4EEA014E10EB0E0041EB10
:100B60001141401841F100014FEAD00040EA4170C4
:100B70004FEAD10110EB80054FEA810444EA9074FA
:100B800044EB01046D1944EB0404521BA3414FF0E4
:100B9000000348BF0A3200D530BD401C41F10001BE
:100BA00030BD10B5044600F07FFC0068005D00F029
:100BB000010010BD2DE9F0470D46994692460446C6
:100BC00000F124080168880604D5E06921F01001CD
:100BD000216000E00120A84201DD471B00E0002762
:100BE000A1697A1902EB0900081AA0612078C006F1
:100BF00002D42046FFF782FC002608E0D4E9012158
:100C00001AF806009047206A401C761C20624E4568
:100C1000F4DB2078C0060AD52046FFF76FFC06E01B
:100C2000D4E9012130209047206A401C2062381E00
:100C3000A7F10107F4DC07E0D4E9012118F8050069
:100C40009047206A401C2062281EA5F10105F3DCB4
:100C50002046FFF769FC2078000602D50220BDE897
:100C6000F0870120FBE770472DE9FF4F0C461E4639
:100C70004FF0FF378BB0D2E90001DDF860800A90B9
:100C80008A46C1F30A5505B93D46002108464FF092
:100C90000000BAF1000F00F4400005DA00EB80001C
:100CA0004FF4400101EA50004FEA9059B9F1010FA9
:100CB00000DDB9460A9850EA4A000ED044F61050BA
:100CC000A5F2FF3545432F14B8F1000F1ED0754231
:100CD000291E1EDDC9F100021CE0B8F1010F4FF022
:100CE000000001D0302103E0F24305E02154401C14
:100CF000B042FBDB30460022002121540B99C1F8A1
:100D00000880C1E900200FB0BDE8F08FBD1B6D1C4D
:100D1000DEE74A4600DA694206A800F063FE06AB49
:100D200093E8070003AB83E8070050460A9901F0F7
:100D30005BF98DE80700A0F500501F38009003987C
:100D4000002D09DD42F21F014A46084403A9039021
:100D5000684601F0E4FB08E0A0F500504A461F3861
:100D600003A90390684601F002FC8DE80700000427
:100D7000000C03D04FF0FF30410800E01046B8F1FE
:100D8000000F03D00022009215461EE0751E05D408
:100D9000FFF7C2FE303262556D1EF9D5B34601220F
:100DA000084302D000227F1C04E02078302801D1C3
:100DB00000227F1E002A099786D01DE0112D07DA38
:100DC000FFF7AAFE303262556D1C50EA0102F5D1E0
:100DD000084302D00098C8B10EE00021681E05E06B
:100DE000235C625C63542254401E491C8142F7DB41
:100DF000AB46A81B401E0990002004F80B000B987E
:100E0000099AC0F80880C0E9002B7CE711264FF052
:100E1000000859E72DE9F04F88460446D21D22F01C
:100E2000070191B0D1E90001CDE90A0106F0C4FA49
:100E300002460B98C00F01D02D2007E020688107E3
:100E400001D52B2002E0202101EAC000032A0990ED
:100E500001D0072A05DB03464146204600F030FB5F
:100E60000BE12078800601D5E06900E00620B8F1AA
:100E7000650F814606D0B8F1660F18D0B8F1670F3C
:100E800070D131E00020B9F1110F009001DB112386
:100E900001E009F101030AAA01A90CA8FFF7E4FE89
:100EA000DDE90C70002609F10105834647E00120C9
:100EB0004B4600904FF000470AAA01A90CA8FFF783
:100EC000D3FEDDE90DB00C995D46002610B909F19D
:100ED00001000D18B9EB050003D4C0F1FF3609F18C
:100EE0000105A5EB09002BE0B9F1010F01DA4FF084
:100EF00001090020B9F1110F0090484601DD1123CE
:100F000000E003460AAA01A90CA8FFF7ADFEDDE93F
:100F10000C704D4600268346207800070AD4AB4566
:100F200000DA5D4601A8012D04DD411911F8011C0C
:100F3000302907D04F4502DA17F1040F04DA0120F7
:100F400082460FE06D1EEEE7002F02DCED1B3E44F3
:100F500003E0781CA84200DD7D1CB81B00F1010AEB
:100F60004FF000472078000703D4AA4501DB4FF07B
:100F7000FF3A0021B7F1004F0DF143088DF84310FF
:100F800024D002202B23002F01DA7F422D230A21B7
:100F9000021EA0F1010000DC5FB197FBF1FC97FBA2
:100FA000F1F201FB1C7C17460CF1300C08F801CD66
:100FB000EEE7A8F1010003702188090501D545215C
:100FC00000E06521A0F1010800F8011C09980FA9B3
:100FD000A1EB0807FF1D00B10120411901EBEA70E8
:100FE000A1693844081A401EA0612078C00602D4C6
:100FF0002046FFF783FA099828B1D4E901219047E8
:10100000206A401C20622078C00622D52046FFF7C7
:1010100075FA1EE0002E04DBB34502DD01A8805DF9
:1010200000E03020D4E901219047206A401C206272
:10103000761CAAF101005FEA000A0AD100F03CFA2E
:10104000C0680168405CD4E901219047206A401CD7
:101050002062281EA5F10105DCDC07E0D4E90121AE
:1010600018F8010B9047206A401C2062381EA7F137
:101070000107F3DC2046FFF757FA032011B043E6DF
:101080002DE9F04F04460D46D21D22F0070089B02D
:10109000D0E9009248461746394606F08DF90246D7
:1010A000F80F01D02D2307E02068810701D52B23FD
:1010B00002E0202101EAC0038DF820300BB10120AD
:1010C00000E00020032A824601D0072A04DB2946DB
:1010D000204600F0F5F93DE12078800601D40D2589
:1010E00000E0E569C7F30A560D2D49DA00214FEA01
:1010F000175B08464FF00000002F00F4400007DAAD
:1011000000EB80004FF4400100EBD07001EA60007A
:101110008115012901DD4FF0FF3100224FEA850CD6
:10112000BCF1180F06D31346ACF118004FF08052F3
:10113000C24003E04FF4801323FA0CF30CF10C0CC3
:10114000BCF1200F04D3ACF1200C09FA0CF001E043
:1011500007FA0CF000294FF0004801DD18B90FE044
:101160000ED140450CD319EB02095F4121B940452E
:1011700002D19F4329EA0209BBEB175F00D0761C1E
:101180002088000502D57B48784402E079487844FD
:10119000193808AA302302F80A30037C0AF1010149
:1011A000002E0AF1020A53546A4602DC4FF0300165
:1011B00001E04FF031014FF001088DF8001002D02E
:1011C000A6F2FF3603E059EA470100D06A4E002D2F
:1011D00002DC2178090704D54FF002082E218DF892
:1011E0000110C44600210BE0C7F303433F01C35C79
:1011F000491C6D1E02F80830052908F1010801DAC2
:10120000002DF1DC00210CE000EB1973491C1B7868
:101210006D1E082902F808304FEA091908F1010883
:1012200001DA002DF0DC2178890602D514E0A8F15E
:101230000108E04505DD02EB080111F8011C302929
:10124000F5D0B8F1000F07DD02EB080111F8011C21
:101250002E2901D1A8F10108002D05DD3E2102F85B
:1012600008106D1E08F10108407C002E02F80800ED
:1012700008F1010804DA2D20764202F8080002E0A5
:101280002B2002F808000A214FF47A70864208F1F8
:1012900001080BDB96FBF0F3303302F8083096FBC5
:1012A000F0F308F1010800FB136601E0642E0CDB8B
:1012B000642096FBF0F3303302F8083096FBF0F32D
:1012C00008F1010800FB136601E00A2E06DB96FB1D
:1012D000F1F0303002F8080008F1010896FBF1F057
:1012E00001FB1060303002F80800A16908F1010824
:1012F00008EB050202EB0A00081AA0612078C0067C
:1013000002D42046FFF7FAF8216A08AE01EB0A0082
:10131000206204E0D4E9012116F8010B9047BAF1EC
:10132000010AF7D22078C00602D52046FFF7E6F87A
:101330006E4609E016F8010B3E280FD0D4E90121D2
:101340009047206A401C2062B8F10108F2D2204682
:10135000FFF7EAF809B00320BDE8F08F206A2844BF
:10136000206203E0D4E90121302090476D1EEBD3C9
:10137000F8E70000B07B000002FCFFFF10B54369F6
:1013800013B1AFF3008001E0FFF7F1F8012010BDC9
:10139000127800F124010A7000224A700122EDE760
:1013A00011684FF0FF32E9E710B5436913B1AFF3AD
:1013B000008001E0FFF77AF9012010BD128800F1EA
:1013C000240182840022C2840122EDE711684FF0DB
:1013D000FF32E9E7426842B1016811F8013B23B1ED
:1013E000521EC0E90012184670470121C160881ED4
:1013F000704742685AB1C368016843B983688B4239
:1014000005D0491E521CC0E90012002070474FF061
:10141000FF30704770B516460C46054600F044F89C
:10142000036893F80101012806D0FF2C0FD8185D3E
:1014300068B101202C7070BDD3F8070132462146F7
:1014400003F2071303442846BDE8704018474FF0E5
:10145000FF3070BD00487047642400207546FFF7D8
:10146000F9FFAE4605006946534620F00700854661
:1014700018B020B5FEF758FFBDE820404FF0000639
:101480004FF000074FF000084FF0000B21F007016C
:10149000AC46ACE8C009ACE8C009ACE8C009ACE8AF
:1014A000C0098D467047000010B500F005F8001D1A
:1014B00010BD00BFA16D00000048704784240020CB
:1014C0002DE9F0411F46044603260168072A01F46E
:1014D000006004DB08B116A505E016A503E008B11D
:1014E00015A500E015A521F010002060A069C01E20
:1014F000A0610FB1401EA0612046FEF7FFFF4FB173
:10150000D4E9012138469047206A401C2062C01C63
:10151000206206E0206AFAE7D4E9012115F8010B00
:101520009047761EF8D22046FEF7FEFFBDE8F08118
:101530004E414E006E616E00494E4600696E660077
:101540002DE9FF4F064689B00878FF2806D0491CD0
:101550002D2805D000244FF0000908E000200CE001
:101560000124F8E709EB8903491C00EB43090878DB
:10157000FF28F7D114B1C9F1000081461078002589
:101580002C46AA4629462D2801D02B2804D1521CCE
:101590002D2813D0002082468B461078FF280FD0CC
:1015A0004FF0000C0A21521CA5FB017804FB0181BD
:1015B00005FB0C11C5194BEB0104EEE70120EAE72E
:1015C000002108464FF00000BAF1000F02D000EBF6
:1015D00080004008C0F38158B8F1010F01DD4FF0E1
:1015E000FF380C9809EB000755EA040009D04FF0CA
:1015F000020917F5FA7F0BDA4FEACA70C6E900B0A4
:1016000012E04FEACA70C6E900B00DB0BDE8F08F35
:10161000B7F5FA7F0DDDF0487844D0E90010C6E94F
:10162000001040EACA707060FFF772FAC0F80090CC
:10163000EBE7391E02DAC8F1000200E0424600DAA8
:10164000794206A800F0CEF906AB93E8070003AB99
:1016500083E8070044F23E005BEA0401009058462C
:1016600004D144F21E012C465D460091210C090470
:10167000014306D10099240444EA15442D0410398D
:10168000009104F07F41014306D10099240244EA0D
:1016900015642D020839009104F07041014306D110
:1016A0000099240144EA15742D01091F009104F0EA
:1016B0004041014306D10099A40044EA9574AD006D
:1016C000891E009104F00041084304D100986D196F
:1016D0006441401E009042466846002FCDE9014516
:1016E00003A902DD00F057FF01E000F02CFFBAF182
:1016F000000F04460D4601D084F0004440F2FF770D
:1017000024F00040284303D0C4F30A50B84212D159
:10171000FFF7FEF9C0F80090C4F30A50B8420AD1AE
:10172000AE487844D0E90010C6E9001004F000414A
:101730000843706069E7C6E9005466E72DE9FF4F8A
:101740001F464FF0000A4FF0FF38454691B0D7E9E9
:101750000146CDF83CA0FFF7AFFEC0680168405CD1
:101760001090B96912986D1C8847396A814688477C
:101770000028F6D1B9F1FF3F0AD0002E24F4D0643E
:1017800011DDB9F12B0F08D0B9F12D0F0BD102E00B
:10179000404615B03AE744F48064B96912986D1C6C
:1017A0008847761E8146600504A901D52D2000E0FA
:1017B0002B20002E01F1010B0DF130088DF81000E7
:1017C0003FDDB9F1690F08D0B9F1490F05D0B9F182
:1017D0006E0F02D0B9F14E0F1CD13B4601A8009507
:1017E00080E85002DDE912126FF0020007F01DFAE6
:1017F000C11CCED10EE0B96912986D1C8847814694
:101800001398761E44F4007405600F98401C002E57
:101810000F9016DDB9F1300FEDD0B9F1780F02D08D
:10182000B9F1580F0DD10F9801280AD13B46CDE9E7
:101830000054DDE91212001F029607F0F4F9C11CF2
:10184000A7D1109989453ED144F0800406E0139950
:10185000681CAAF1010A44F400740860B9696D1C9F
:101860001298761E884730288146F0D02BE01099D8
:10187000894505D1200603D4761E44F0800418E083
:10188000484605F024FE08B3761E0DF123018B4572
:1018900044F4007408D2A9F130000BF8010B2006C3
:1018A00007D5AAF1010003E0200602D40AF10100E5
:1018B0008246A00502D51399681C0860B969129880
:1018C0006D1C88478146002ED1DC53E0002E51DD8F
:1018D000B9F1650F02D0B9F1450F4BD1A00549D53B
:1018E000B9696D1C1298761E24F440748847002E46
:1018F00081460CDD2B2804D0B9F12D0F07D144F41B
:101900008074B96912986D1C8847761E8146E0057F
:1019100001D52D2100E02B2108F8011BCDF8008016
:1019200021E0761E0DF13901884544F400740CD293
:10193000A9F1300010F0FF0088F8000002D10099F2
:10194000884509D908F1010806E0E00501D52448D9
:1019500001E042F20F708246B96912986D1C884707
:10196000814613980560002E04DD484605F0AFFD62
:101970000028D6D1F96912988847FF2053468BF882
:10198000000088F8000000200A900B9004AA0CA91F
:101990000AA8FFF7D5FDA00502D46FF00100F8E614
:1019A00014F0240F0AD0E00714D13868DDE90A12D8
:1019B000031D3B600068C0E900120BE00AA96846FD
:1019C00005F02EFDE00705D13868009A011D396049
:1019D000006802602846DCE6A87800009E770000D8
:1019E000F1D8FFFF2DE9F047814616468AB033480B
:1019F00078440DC88DE80D0030487844801C03AC55
:101A00000DC884E80D0041F69B300844372190FB57
:101A1000F1F290FBF1F5A5F1800501FB12041B3CEE
:101A200002D56442012000E00020DFF890A080464B
:101A30000027FA44AAF1BE0A0DE0E00709D03246B9
:101A4000684607EB47010AEB810100F090FD8DE845
:101A5000070064107F1C002CEFD1184F7F44AC3F6F
:101A600018E0E80714D007EB04100DF1180A90E80D
:101A70000E008AE80E00C068F04201D19819089063
:101A8000324606A903A800F072FD03AB83E8070005
:101A90006D10641C002DE4D132466946B8F1000F88
:101AA00003A802D000F03BFD01E000F060FDC9E9B1
:101AB0000001C9F808200AB0BDE8F087D87300001B
:101AC0000446AFF300802046FEF7CDFB4FF0013C0B
:101AD00050F8042B51F8043B9A4221D1A2EB0C039D
:101AE000934313EACC1317D150F8042B51F8043B5D
:101AF0009A4215D1A2EB0C03934313EACC130BD1FA
:101B000050F8042B51F8043B9A4209D1A2EB0C0384
:101B1000934313EACC13DBD04FF00000704700BFB3
:101B2000D01A01BAB1FA81F101F0180122FA01F0DC
:101B3000CB40C1F12001DBB2C0B2C01A2CFA01F3D4
:101B4000D11A914311EAC311E6D170472DE9FF4F35
:101B50001F464FF03C0987B04FF00042DDE91410FA
:101B600001F10108DDF858A002EA4050039000207E
:101B700004908346054604460590B969461E0898B8
:101B80008847AAF1010A0290BAF1000F37DD0298E6
:101B90002E2815D0102100F018FA00282ADB4FF06B
:101BA000010B0499014316D0B9F1000F0BDB4A4633
:101BB000C11700F0F7F905430C43A9F1040905E04A
:101BC0000120059007E008B145F0010501200490CF
:101BD000059800B9361DB969089808F101088847C9
:101BE000BBF1000FAAF1010A0290CDD00999C1F80A
:101BF0000080C9E70298702808D0502806D0F969FB
:101C000008988847BBF1000F14D04FE000200290E5
:101C10000120BBF1000F049009D0B969089808F1C0
:101C200001088847AAF10109B9F1000F07DCF96939
:101C3000089888476FF001000BB0BDE8F08F2B28A3
:101C400004D02D280CD14FF0FF300490B9690898CA
:101C500008F101088847A9F10109B9F1000FE6DD93
:101C6000411CE4D00A2100F0B0F90028DFDB029922
:101C700008F1010801EB810100EB41000290B96914
:101C8000089888470A2100F0A0F9099AA9F10109EA
:101C9000B9F1000FC2F8008001DD0028E7DAF96928
:101CA000089888470499029800FB016655EA0400E9
:101CB00004D004F04041090002D006E0039898E007
:101CC000A40044EA9574AD00B61E04F0004108007B
:101CD00002D16D196441761E159810F0240F03D0BF
:101CE0004FF00B095C4803E04FF028096FF07D00CE
:101CF0008246564507DAAAEB06018944B9F1410F3D
:101D000001DD4FF0410901200021A9F1010200F09D
:101D100049F9024628400B462140084301D00121E1
:101D200000E00021501E029143F1FF312840214084
:101D3000084301D0012000E000200299834651EAC7
:101D40000B014FD0002108464FF00000039900F42A
:101D5000400039B100EB80004FF4400100EBD0703F
:101D600001EA60008015012802DD4FF0FF3000E03D
:101D700013D0401C36D0029860B3BBF1000F0CD1D9
:101D80004A460120002100F00DF928402140084377
:101D900001D0012000E00020E0B101204A460021EE
:101DA00000F000F9034640190A4661412D1A8C41A2
:101DB00011D3B9F1400F09DD159810F0240F02D0AE
:101DC000AAF1340603E0AAF1170600E0761C00250C
:101DD0004FF0004406E05B1E42F1FF3220EA0305AB
:101DE00021EA0204CAF10100B04206DA1B49039855
:101DF00008430190002000900EE0039AC4F3D32121
:101E0000E80A0A43164940EA44500A433146CDE9FC
:101E10000002684605F050FB159810F0240F0BD017
:101E20001598C00715D13868DDE90012031D3B6025
:101E30000068C0E900120CE002A8694605F0F0FA5B
:101E40001598C00705D13868029A011D39600068ED
:101E500002604046F0E6000002FCFFFF0000F07F59
:101E60000000F03F2DE9FF4F92461D4685B04FF030
:101E70000041DDE9124BDDE914727F1E01EA4B508F
:101E8000414940F0FF4940EA0108002122F02000CA
:101E90004928049102D04E2828D04CE03BA00126CE
:101EA00007C88DE80700A9690698641C88477F1E4B
:101EB000014606D41DF8060018B121F02001814228
:101EC0000BD0E96906988847032E34D0082E32D00B
:101ED0006FF0010009B0BDE8F08F761C032E01D031
:101EE000082EE0D1601CCAF80000DCE7A96906985A
:101EF000641C88477F1E2AD420F02000412826D168
:101F0000A9690698641C88477F1E20D420F0200011
:101F10004E281CD1A9690698641C88477F1E48F486
:101F2000002849F48009CAF8004001D4282806D0C6
:101F3000E969069888475FEACB7012D022E0A96968
:101F40000698641C88477F1E01D4002803DAE969DB
:101F500006988847BCE72928F1D1641CCAF80040DC
:101F6000E9E71BF0240F07D028680499031D2B60B4
:101F70000068C0E9001805E02868021D2A600068B2
:101F8000C0F800902046A5E70000F07F494E464982
:101F90004E4954590000000001491820ABBEFEE72D
:101FA00026000200B2F120030AD5C2F1200301FA93
:101FB00002F120FA03F300FA02F041EA030170474C
:101FC00000FA03F14FF0000070473A2800D2303891
:101FD00020F02002412A01D3A2F13700884201D328
:101FE0004FF0FF30704770475FEA400C08BF91F038
:101FF000000F4FEA8C234FEAC12243EA51514FEAC6
:102000001C5018BF00F5F0404FEA300018BF41F0F7
:1020100000415FEA6C5C00F02980BCF1FF3F08BF23
:1020200040F080407047130C06BF12044FF0100CB4
:102030004FF0000C130E04BF12020CF1080C130F2A
:1020400004BF12010CF1040C930F04BF92000CF1B9
:10205000020CD30F04BF52000CF1010C11464FF0DB
:102060000002A0F11F00A0EB0C00704711F0004F20
:1020700008BF704731F000413FF4D5AF0B0C06BFED
:1020800009044FF0100C4FF0000C0B0E04BF0902B6
:102090000CF1080C0B0F04BF09010CF1040C8B0FA1
:1020A00004BF89000CF1020CCB0F04BF49000CF1F6
:1020B000010CCCF12003A0EB0C0022FA03F302FA8E
:1020C0000CF241EA030100F10100704720F07F4C5F
:1020D00080EA030023F07F47ACEB070303F57C5352
:1020E00000F0004003F1FF032DE980494FEA154B52
:1020F00009B44FEA144325EA0B4E24EA03480FF2D1
:10210000042606EB132749083E785FEA320203FBF8
:102110000667C7F5000707FB06F64FEA54374FEA94
:10212000D64606F1020607FB066CCCF1005C4FEACE
:102130001C472CEA074C07FB06F40CFB06F504EBE6
:1021400015464FEA961634BF00204FF000404FEA84
:10215000D13706FB07FC4FEA1C4C0CFB0BF7D21BDC
:1021600003FB0CF761EB07010CFB0EF7B0EB07402C
:1021700072EB17420CFB08F734BFA2EB0742B2EB3D
:10218000074261EB17414FEA0C444FEA910706FB07
:1021900007FC4FEA1C4C0CFB0BF7B0EBC74072EB93
:1021A000573203FB0CF734BFA2EBC742B2EBC74276
:1021B00061EB57310CFB0EF7B0EBC70072EB5772B7
:1021C0000CFB08F734BFA2EBC702B2EBC70261EB0E
:1021D0005771039F4FEA816141EA921104EBCC04ED
:1021E0004FEAD1374FEA826206FB07FC42EA9012BF
:1021F0004FEA80604FEA1C4C0CFB0BF7D21B03FB31
:102200000CF761EB07010CFB0EF7B0EB074072EB2C
:1022100017420CFB08F734BFA2EB0742B2EB0742B0
:1022200061EB17414FEA8C554FEA910704EB9C2470
:1022300006FB07FC4FEA1C4C0CFB0BF7B0EBC7404E
:1022400072EB573203FB0CF734BFA2EBC742B2EB81
:10225000C74261EB57310CFB0EF7B0EBC70072EBD6
:1022600057720CFB08F734BFA2EBC702B2EBC702F0
:1022700061EB577115EB4C254FEA816141EA9211F0
:102280004FEA82624FEAD13742EA901206FB07FC1E
:1022900044F100044FEA80604FEA1C4C0CFB0BF742
:1022A000D21B03FB0CF761EB07010CFB0EF7B0EB45
:1022B000074072EB17420CFB08F734BFA2EB074252
:1022C000B2EB074261EB174115EB1C154FEA813168
:1022D00041EA92414FEA823242EA90424FEA80302C
:1022E0004FEA0C7644F1000448EA03434EEA0B48F7
:1022F0004FF0000EB2EB080C71EB030724BF6246EF
:1023000039464EEB0E0E4FF0000B0018524149417A
:102310004BEB0B0BB2EB080C71EB03077BF1000BE3
:1023200024BF624639464EEB0E0E4FF0000B0018EC
:10233000524149414BEB0B0BB2EB080C71EB03071D
:102340007BF1000B24BF624639464EEB0E0E51EA7C
:10235000020718BF46F0010616EB0E7655F1000293
:1023600054F1000103D5BDE88901BDE80088BDE84E
:102370008901BDE80048B619524141EB0101A3F1C2
:102380000103704780807F7E7D7C7B7A79787776C9
:1023900076757473727171706F6E6E6D6C6C6B6A42
:1023A0006A696868676666656464636362616160E0
:1023B000605F5F5E5E5D5D5C5C5B5B5A5A5959585D
:1023C00058575756565555555454535352525251C7
:1023D000515050504F4F4F4E4E4D4D4D4C4C4C4B1D
:1023E0004B4B4A4A4A494949484848474747474664
:1023F00046464545454444444443434343424242A0
:102400004241414146EA0646A3F570534FEA16465B
:1024100046EA42564FEAD22242EA415210B54FEA0A
:10242000D121A3F1010300F017F820F0004000F1E2
:10243000010C00F0004701EB00501146BCF5006FA5
:1024400040EA070000D210BD02484FF0000140EA08
:10245000070010BD0000F07F002B26D4770021D0AC
:102460001CB54FEA370703B44FF010004FF01001CE
:102470004FF000000FBCBDE810400BF1010BBBF1A9
:10248000010F08BF5FEA170722BF12F1010211F125
:1024900001014FF0004143F1000300F0004043EA26
:1024A00000007047F9D35708DAE746EA064613F109
:1024B000400F4FEA16461FDD13F1200FDFBF164312
:1024C0000A46002120335B42C8D0C3F1200746EA08
:1024D000064602FA07F74FEA164646EA0706C3F130
:1024E000200722FA03F201FA07F721FA03F14FF06D
:1024F000000342EA0702B1E746EA020646EA064658
:102500004FEA164646EA0106BCBF46EA0646360CC6
:102510004FF000034FF000024FF000019EE72DE95D
:10252000C048934630B491E8380007C831EA400CFF
:1025300048BF34EA430C03D5FFF7C8FDFFF78CFF13
:10254000F0BCBDE800882DE9C048934630B491E85E
:10255000380007C831EA400C48BF34EA430C03D5C1
:10256000FFF7B4FDFFF74EFFF0BCBDE800882DE992
:10257000C048934630B491E8380007C810F0804F47
:1025800008BF13F0804F03D100F019F8FFF764FF84
:10259000F0BCBDE800882DE9C048934630B491E80E
:1025A000380007C810F0804F08BF13F0804F03D1E8
:1025B00000F005F8FFF726FFF0BCBDE8008820F02A
:1025C0007F4780EA030023F07F4C07EB0C03A3F561
:1025D0007C5300F00040A3F1FE0392F0000F00F0E6
:1025E000B38095F0000F00F077802DE901494FEAA4
:1025F00011404FEA144621EA004800FB06FC24EA99
:10260000064708FB06F607FB08F800FB07F718EB80
:1026100006484CEB164C4FEA124B18EB07484FEAB2
:1026200015464CEB174022EA0B4E0BFB06FC25EA45
:1026300006470EFB06F607FB0EFE0BFB07F71EEB2D
:10264000064E4CEB164C4FF000061EEB074E4CEBC3
:10265000174B18EB0B0840F1000018EB0E0B58EB72
:10266000000840F100008F1A4FF000013CBFC94341
:10267000661B14BFB5EB040C00213CBFC943F61B1D
:102680004FEA17444EEA8E0E27EA04454FEA1C47EC
:1026900004FB07622CEA074C05FB07F70CFB05F669
:1026A00004FB0CFC16EB074642EB174216EB0C46FC
:1026B00042EB1C421BEB060658EB0202414146EA84
:1026C0009E0601D5BDE80189B619524141EB0101D1
:1026D000A3F10103BDE801894FEA14454FEA114710
:1026E00024EA054621EA074C05FB07F406FB07F739
:1026F0000CFB06F105FB0CFC11EB074144EB174406
:102700004FEA124711EB0C4144EB1C4422EA074C00
:1027100005FB07F206FB07F70CFB06F605FB0CFCB6
:1027200016EB074642EB174216EB0C4642EB1C45F4
:102730006A1854F1000148BF7047B619524141EB85
:102740000101A3F10103704795F0000F37D04FEA64
:1027500011424FEA144721EA024624EA074C02FBE1
:1027600007F106FB07F70CFB06F402FB0CFC14EB6D
:10277000074441EB17414FEA154714EB0C4441EB7A
:102780001C4125EA074C02FB07F506FB07F70CFB8B
:1027900006F602FB0CFC16EB074645EB174516EB5D
:1027A0000C4645EB1C42121951F1000148BF70471D
:1027B000B619524141EB0101A3F1010370474FEA01
:1027C00014454FEA114724EA054621EA074C05FB68
:1027D00007F106FB07F70CFB06F24FF0000605FBBE
:1027E0000CFC12EB074241EB174112EB0C4251EB90
:1027F0001C4148BF7047921841EB0101A3F101034E
:102800007047000070B5044600688168C943C90775
:1028100017D1816821F00101816001F043F905467B
:102820000AE000BF01F03EF9401B022804D92068ED
:102830008068C043C00706D020688068C043C007D6
:10284000F0D0002070BDA06A40F01000A062E06AE5
:1028500040F00100E062012070BD10B50146406A01
:10286000826A12F0500F05D0006A026BBDE810407A
:1028700008461047816A41F40071816201688968E5
:10288000C1F3424107290CD1017B51B9816A21F47E
:1028900080718162816AC90403D4816A41F00101B7
:1028A000816200F07DFD10BD10B5406A816A41F083
:1028B00040018162C16A41F00401C16200F072FD11
:1028C00010BD10B5406A00F06CFD10BDF8B50026D3
:1028D0000446009600688168C943C9072DD0816805
:1028E00041F001018160164816490068B0FBF1F023
:1028F00000E0401E00900028FBD101F0D3F805460F
:1029000016E000BF01F0CEF8401B022810D9206865
:102910008068C043C0070BD0A06A40F01000A062DE
:10292000E06A40F00100E06284F824600120F8BD14
:1029300020688068C043C007E4D10020F8BD0000D3
:102940008C00002040420F0038B50024009400F0B5
:10295000F9F88DF8034058208DF802008DF80140F9
:1029600005208DF800006946042004F0DBFC8DF89A
:102970000340EC208DF8020080258DF801503C20AA
:102980008DF800006946042004F0CCFC8DF803406B
:102990008DF8024004208DF80100B3208DF800006E
:1029A0006946042004F0BEFC8DF8034001208DF838
:1029B00002000E208DF8010042208DF800006946CB
:1029C000042004F0AFFC8DF803408DF802408DF830
:1029D000015029208DF800006946042004F0A2FC73
:1029E0008DF803402C208DF802008DF8015018203E
:1029F0008DF800006946042004F094FC38BD000006
:102A00002DE9F84F444A012500274449904201DA54
:102A1000104602E0884200DD0846414E4FF47A74C9
:102A2000314605F033FF05F0FDFE05F01BFF314692
:102A300005F01AFE824605F0F5FEDFF8E8B01FFA51
:102A400080F8002608FB05F005F09CFC81465A46FC
:102A5000354B009105F03EFD06D84846334A344BCD
:102A6000009905F0A7FC09D97F1C761C4FF6FF7072
:102A7000B6B2BFB200EA45050A2EE3D3284605F0F8
:102A8000F1FE514605F002FF2A4905F0EDFD06462C
:102A900005F0C8FE85B22849304605F0F7FE05F07E
:102AA000C1FEB0FBF4F204FB1200052104E000BFFC
:102AB000B0FBF1F0B4FBF1F4B0FBF1F201FB120258
:102AC00042B9B4FBF1F201FB1242002AF0D001E05E
:102AD0004008640840EA0401C907F9D00722B7FB9F
:102AE000F2F102FB1171EA0302EBC00548F20100AA
:102AF00000EBC406114800EB0154114804F0FEFB42
:102B0000304604F0FBFB284604F0F8FB2046BDE805
:102B1000F84F04F0F3BB000000000C420080894530
:102B200000002041CDCCCCCCCC2FA1409A999999D2
:102B30001930B1400000C84100007A443C808C004C
:102B40001C80EC000C4800B5816985B041F008019B
:102B500081618069694600F00800049000200290BD
:102B60004FF470400090012001900320039003482F
:102B700000F096FE05B000BD00100240000C0140C0
:102B80001CB55C4D1426002430466E6002F034FA09
:102B9000287902F0FFF948F6A0484FF0C809DFF89D
:102BA00058A1A34602F01EFE641C0746444500DD02
:102BB000002494FBF6F006FB104020B939464FA0E4
:102BC0006A6804F0CDFF67B1012F17D0022F24D01F
:102BD000032F2FD094FBF6F006FB1040002836D0D0
:102BE00060E094FBF9F109FB114010B948A004F032
:102BF000B7FF3F2002F000FA3F200BE094FBF9F111
:102C000009FB114010B949A004F0AAFF152002F0F9
:102C1000F3F9002002F0BEF95DE094FBF9F109FB45
:102C2000114010B946A004F09BFF002002F0E4F927
:102C30001520EFE794FBF9F109FB114010B945A00D
:102C400004F08EFF002002F0D7F90A20E2E7BAF87C
:102C50000220BAF8001043A004F082FFBAF8020084
:102C600005F000FE444905F011FE6FF00B0105F080
:102C7000B2FF05F065FC07460091BAF8000005F0C8
:102C8000F1FD3D4905F002FE6FF00B0105F0A3FFD9
:102C900005F056FC0B4600990246CDE9007137A0BD
:102CA00004F05EFFBAF8000005F0DCFD3A4905F0DB
:102CB000DBFC3A4905F0EAFD4FF07E5105F06CFC73
:102CC00005F094FDBD280ADD68681030686049E2AF
:102CD000287902F0C3F9322004F0B8FC62E7152825
:102CE00004DA68681D3868605AD4F1E71538A928F5
:102CF00057D257E000000020180000207365743D93
:102D000025642020617474656E3D25640D0A000001
:102D1000413120413220616C6C20617474656E20F9
:102D200033312E352064420D0A000000413120610C
:102D30007474656E2031302E352064420D0A000017
:102D4000413220617474656E2031302E352064422A
:102D50000D0A0000413220617474656E20352064D4
:102D6000420D0A005042303D256420202020205092
:102D700042313D25640D0A00333353406368303DD2
:102D800025312E33665620206368313D25312E33A0
:102D900066560D0A000000000040E7440000B24201
:102DA00061E15DE1810000BF794449688F44000022
:102DB000A4020000AA020000BC020000C20200003F
:102DC000C8020000C8020000CE020000D4020000C9
:102DD000D4020000DA020000DA020000E002000083
:102DE000E6020000E6020000EC020000EC02000037
:102DF000F2020000F2020000F8020000F8020000F7
:102E0000FE020000FE0200000403000004030000B4
:102E10000A0300000A030000100300001003000072
:102E20001003000016030000160300001603000044
:102E30001C0300001C0300001C0300002203000010
:102E400022030000280300002803000028030000DC
:102E5000280300002E0300002E0300002E030000B4
:102E60003403000034030000340300003403000086
:102E70003A0300003A0300003A0300004003000058
:102E80004003000040030000400300004603000030
:102E9000460300004603000046030000460300000E
:102EA0004C0300004C0300004C0300004C030000E6
:102EB00052030000520300005203000052030000BE
:102EC00052030000B0020000B0020000B002000097
:102ED000B0020000B00200005803000058030000D8
:102EE0005803000058030000580300005E03000070
:102EF0005E0300005E0300005E0300005E0300004E
:102F00005E0300006403000064030000640300002B
:102F10006403000064030000640300006A0300000F
:102F20006A0300006A0300006A0300006A030000ED
:102F30006A030000700300007003000070030000CB
:102F400070030000700300007003000070030000B5
:102F5000760300007603000076030000760300008D
:102F60007603000076030000760300007C03000077
:102F70007C0300007C0300007C0300007C03000055
:102F80007C0300007C030000820300008203000039
:102F9000820300008203000082030000820300001D
:102FA000820300008203000082030000820300000D
:102FB00088030000880300008803000088030000E5
:102FC00088030000880300008803000088030000D5
:102FD000880300008E0300008E0300008E030000B3
:102FE0008E0300008E0300008E0300008E0300009D
:102FF0008E0300008E0300008E0300009403000087
:103000009403000094030000940300009403000064
:103010009403000094030000940300009403000054
:10302000940300009C0300009C0300009C0300002C
:103030009C0300009C030000A2030000A203000008
:10304000A2030000A2030000A2030000A8030000E6
:10305000AE03000068681C3801E068681B386860CF
:10306000686800287EDAC5F804B031E668681A3866
:10307000F5E768681938F2E768681838EFE76868B4
:103080001738ECE768681638E9E768681538E6E746
:1030900068681438E3E768681338E0E7686812384E
:1030A000DDE768681138DAE768681038D7E76868DC
:1030B0000F38D4E768680E38D1E768680D38CEE776
:1030C00068680C38CBE768680B38C8E768680A3866
:1030D000C5E768680938C2E768680838BFE7686804
:1030E000C01FBCE76868801FB9E76868401FB6E783
:1030F0006868001FB3E76868C01EB0E76868801E94
:10310000ADE76868401EAAE76868401CA7E76868E2
:10311000801CA4E76868C01CA1E76868001D9EE7E2
:103120006868401D9BE76868801D98E76868C01D57
:1031300095E76868083092E7686809308FE7686843
:103140000A308CE768680B3089E70BE068680C3060
:1031500085E768680D3082E768680E307FE7686849
:103160000F307CE77E287FF7C0AD7E206860AFE53A
:10317000FEE70020704700207047000010B50022D5
:103180000449054802F0C6FD0449034802F0BCFDAD
:10319000002010BD680E002064050020680A002091
:1031A00038B50546144C086820603F2801D93F20F7
:1031B0002060024629461148FDF7F4F80F492268BD
:1031C0000020885429460E4802F09EFD0C4802F06B
:1031D0007FFD0C48006860B1694604F0EBFD009883
:1031E00038B109494FF080500860BFF34F8FBFF3EB
:1031F0006F8F002038BD00007C000020280A0020CE
:10320000640500201000002004ED00E0094A10B51C
:10321000D2F8B822D2F814220AB1012010BD0A4611
:103220000146044802F076FDBDE81040014802F076
:10323000CFBD000064050020014800F00FBA000077
:103240008804002030B590F840500124AC40C56B94
:103250006C60046863604368102B036803D0996056
:103260000068C26030BD9A600068C16030BD7047C0
:1032700072B6FEE710B507A1FDF782F8401C04F016
:103280002DF904F0FDFF0449044A0144914200D3A2
:10329000034810BD460000000000F4BD00807D031F
:1032A000000080BFF8B50024009490F82420254643
:1032B000012A12D0012280F824204A681F23072AFD
:1032C0000DD20668776B521E02EB820293409F4339
:1032D0000B6893401F43776319E00220F8BD06682E
:1032E0000D2A0AD2376BD21F02EB820293409F4312
:1032F0000B6893401F43376309E0F76A0D3A02EB0E
:10330000820293409F430B6893401F43F7620A6811
:10331000072306680A2A0AD3F7680A3A02EB420230
:1033200093409F438B6893401F43F76008E03769E1
:1033300002EB420293409F438B6893401F433761E7
:103340000A68102A01D0112A20D1124B02689A4231
:1033500017D193681B0219D4936843F40003936058
:103360000968102912D10C490C4A0968B1FBF2F125
:1033700001EB8101490000E0491E00910029FBD1C9
:1033800004E0816A41F020018162012480F8245028
:103390002046F8BD002401408C00002040420F0070
:1033A00070477047704700002DE9F0414FF000076B
:1033B00004003D467ED0A06A002628B9E66284F863
:1033C0002460204600F07EF82046FFF71BFAA16A31
:1033D00001F01001014304D0A06A40F01000A06287
:1033E00068E0A16A21F4885141F00201A16262689B
:1033F000E169237B0A4347EA43010A43A1684FF48A
:103400008077B94208D0012906D0002194F814C071
:10341000BCF1010F02D00AE03946F7E7F3B1A36A25
:1034200043F02003A362E36A43F00103E3622368ED
:10343000D3F804C02CF4694C4CEA010CC3F804C066
:1034400023689968DFF870C001EA0C0111439960A4
:10345000A168B9420BD0012909D00CE0DFF85CC0AB
:10346000A3690CEB43330B4343F40061DFE7218A8C
:103470000D05A5F580152168CB6A23F470032B4355
:10348000CB62216889680E4B1940914208D1E662EF
:10349000A16A21F0020141F00101A162BDE8F081C1
:1034A000A06A20F0020040F01000A062E06A40F044
:1034B0000100E0620120F1E7FDF7E1FF00E0FFFF1E
:1034C000FE0E1FFF70B586B00025064600950195DB
:1034D000029503950068194988422DD118498869D9
:1034E00040F400708861886900F400700490886975
:1034F00040F0080088618869694600F0080004907F
:103500000320009001900F4800F0CAF90F4C0E48BC
:10351000C4E900058020C4E9025040002061800019
:1035200060612020C4E90605204600F041F908B199
:10353000FFF79EFE3462666206B070BD0024014053
:1035400000100240000C01400800024088040020E6
:103550002DE9F047894604463B4900683B4F0E1D64
:103560009046884201D0B84207D1306810F4702FDD
:1035700003D001252846BDE8F08794F824000128EF
:103580000CD0012084F824002046FFF79FF90500A5
:103590004FF0000004D084F82400EBE70220EAE7B3
:1035A000A16A40F60162914341F48071A1622168F1
:1035B000B94218D1326812F4702F14D0A16A41F4C4
:1035C0008011A1623168490505D5A16A21F4005135
:1035D00041F48051A162A16AC9040AD5E16A21F0CF
:1035E0000601E16206E0A26A22F48012A262496842
:1035F000E9E7E06284F82400216A15488862216ABC
:103600001448C862216A1448086321686FF00200F8
:1036100008602068816841F48071816021684346B8
:103620004A464C31206A00F0F1F820688168C1F305
:1036300042410729816803D041F48011816099E7F4
:1036400041F4A001FAE700000024014000280140F5
:103650005B280008C3280008A92800082DE9F05FAE
:10366000C16B0C6801680B68D0F840C0042202FAF4
:103670000CF2494DDFF824A1494E4A4FDFF828B13A
:10368000DFF828E122422CD05A072AD50A68920690
:1036900003D40A6822F004020A600168A94201D139
:1036A000042219E0514501D1402215E0B14202D176
:1036B0004FF4806210E0B94202D14FF480420BE037
:1036C000594502D14FF4802206E0714502D14FF4F2
:1036D000800201E04FF080622F4908394A60C16AD8
:1036E0003BE04FF0020808FA0CF818EA040F4FF01C
:1036F00000094FF0010235D05FEA837832D50B68BC
:103700009B0605D40B6823F00A030B6080F8212088
:103710000168A94201D1022219E0514501D12022BC
:1037200015E0B14202D14FF4007210E0B94202D16B
:103730004FF400520BE0594502D14FF4003206E03D
:10374000714502D14FF4001201E04FF000721249AE
:1037500008394A6080F82090816A00291AD0BDE8B3
:10376000F05F0847082505FA0CF5254212D01B0723
:1037700010D50B6823F00E030B6090F84010C36B5C
:1037800002FA01F15960826380F8212080F82090CC
:10379000016BE2E7BDE8F09F080002401C00024018
:1037A0003000024044000240580002406C000240D9
:1037B00030B528B308C8134914221944B1FBF2F1FB
:1037C0008900C16310498163022141771A6843F679
:1037D000F0718A43D0E900142143D0E902452C431B
:1037E00021430469214344692143846921431143EE
:1037F000196000214163012242770177084630BDFC
:10380000012030BDF8FFFDBF0000024070B5044646
:1038100090F82000002501280CD0012084F8200019
:1038200094F821600020012E06D084F820000225A3
:10383000284670BD022070BD022684F82160A06376
:103840002068066826F0010606602046FFF7FAFCAD
:10385000E06A00282068016802D041F00E0106E00D
:1038600021F0040101602068016841F00A01016053
:103870002068016841F001010160D9E770B5044694
:1038800000F010F90546601C02D00448007804449A
:1038900000F008F9401BA042FAD370BD8000002060
:1038A0002DE9F84FDFF8B891002409F1040A0AF174
:1038B000040B23460F270BF1040EC9E00125A54098
:1038C0002A40AA427DD1674ED1F804C0ACEB06086D
:1038D000B44532D014DCBCF1030F3AD009DCBCF1A2
:1038E000000F2AD0BCF1010F1CD0BCF1020F31D166
:1038F0001DE0BCF1110F17D0BCF1120F2AD119E055
:10390000B8F5881F19D006DCB8F5803F15D0B8F59A
:10391000801F1FD111E0B8F5001F0ED0B8F5041FAD
:1039200018D10AE0CB6815E0CB681B1D12E0CB680C
:1039300008330FE0CB680C330CE08B682BB1012B04
:103940004FF0080303D0456104E0042302E0056161
:1039500000E00023FF2A01D8064601E000F104063A
:103960004FEA840501D9A5F12005D6F8008007FAB1
:1039700005FC28EA0C0803FA05F548EA0508C6F82C
:1039800000804D68ED0062D5374DAE6946F0010606
:10399000AE61AD6924F0030605F001050095334DD5
:1039A00006EB050CDCF80850A607360F07FA06F8F8
:1039B00025EA0805DFF8B880404503D14FF000083C
:1039C00017E044E0DFF8AC80404502D14FF0010839
:1039D0000FE0DFF8A480404502D14FF0020808E074
:1039E000DFF89880404502D14FF0030801E04FF026
:1039F000040808FA06F848EA0508CCF808804D687B
:103A0000D9F80060ED034D4601D5164300E096431A
:103A10002E604D68DAF80060AD03554601D51643B7
:103A200000E096432E604D68DBF80060ED025D46D5
:103A300001D5164300E096432E604D68DEF8006025
:103A4000AD02754601D5164300E096432E60641C16
:103A50000D682A46E5407FF431AFBDE8F88F0000DD
:103A6000000401400000111000100240000001405D
:103A700000080140000C014000100140001401400A
:103A80008068084000D001207047C26821EA020324
:103A90000A4043EA0241016170470AB1016170477F
:103AA0000904FBE70148806870470000800000209F
:103AB00070B5040011D021684CF6CC400860216834
:103AC00045F255500860D4E9000141602168A068C2
:103AD0008860FFF7E7FF05460DE0012070BD00BFDD
:103AE000FFF7E0FF401B272805D92068C068800742
:103AF00001D0032070BD2068C0688007F0D1216824
:103B00004AF6AA200860002070BD00684AF6AA2183
:103B1000016000207047000002488168027811446B
:103B20008160704780000020074810B5016841F0AF
:103B300010010160032000F0A7F80F2000F006F844
:103B400000F050F8002010BD0020024030B50546BE
:103B50001F4887B0C16941F00201C161C06906A96F
:103B600000F00200009001A800F082FE0498B0B1BD
:103B700000F0A4FE40001749174AB0FBF1F11748C6
:103B8000491E0260416040F2E7320021C0E9032192
:103B90008160816101F07AF8040003D015E000F043
:103BA0008DFEE8E70D4801F09FF804000DD11D20BF
:103BB00000F03CF8102D07D2002229461D2000F00D
:103BC00043F80748056000E0012407B0204630BDF7
:103BD0000010024040420F00000400401C0500207D
:103BE000840000200F4808B5816941F0010181611E
:103BF000816901F001010091C16941F08051C16109
:103C0000C069002200F0805000900F21901E00F04B
:103C10001BF80548416821F0E06141F00071416006
:103C200008BD00000010024000000140002809DB30
:103C300000F01F02012191404009800000F1E020C6
:103C4000C0F8001170470000F0B40E4B1B680C4622
:103C5000C3F30223C3F10705042D00D90425191D60
:103C6000072901D2002300E0DB1E012606FA05F138
:103C7000491E214099409E40761E16403143F0BCBB
:103C800003F0AEBB0CED00E0064900F00702086847
:103C90004FF6FF03184040EA0220034A1043086031
:103CA000704700000CED00E00000FA0510B50C06AE
:103CB00007D501F0070101EB810100EBC1002830BD
:103CC00005E001EB810100EBC10000F5B47099B291
:103CD00032B1012202730181190C4181002010BD13
:103CE00000220273C180F9E7704701EB810200EB0B
:103CF000C202D0F8E802D26B02F019BA01EB8102DD
:103D000000EBC202D0F8E802D2F87C2102F072BACD
:103D100070B504460B0601F0070000EB800104EBD0
:103D2000C1014FF001024FF0000503D581F82920B1
:103D3000283103E081F8695101F5B471087094F8F5
:103D4000A802012808D084F8A822206802F092FE78
:103D500084F8A852002070BD022070BD70B50446E2
:103D600001F00F006268904201D9012070BD0B067E
:103D700001F0070000EB800104EBC1014FF00102EC
:103D80004FF0000503D581F82920283103E081F8A0
:103D9000695101F5B4718D70087094F8A80201287A
:103DA00008D084F8A822206802F001FF84F8A85205
:103DB000002070BD022070BD2DE9F05F04685FEA4D
:103DC000424C0B788D69B4F850C04FF000064BF6AA
:103DD0008F7948F2800A48F68F7B48F2C00E4FF484
:103DE00080672AD54FF0020808EBC308C44407EBEC
:103DF0004C07E45BC4F30904A54203D32D1B8D617A
:103E000001D00BE08E61066836F8235005EA0905FB
:103E100085F4005545EA0A0526F82350520609D5CF
:103E20000D78036833F8252002EA0B0242EA0E02FD
:103E300023F8252084B30A8929E04FF0060808EB0F
:103E4000C308C44407EB4C07E45BC4F30904A54270
:103E500003D32D1B8D6101D00BE08E61066836F80F
:103E6000235005EA090585F4005545EA0A0526F8B8
:103E70002350520609D40B78056835F8232002EA4E
:103E80000B0242EA0E0225F823202CB14A89496927
:103E90000068234603F000FA2046BDE8F09F2DE9B4
:103EA000F05F054600680C465FEA426C16468B6977
:103EB0002278B0F850C048F68F774CF280094FF660
:103EC000FF7B4FF4004E4FF4806A4FF000017BD52A
:103ED0004FF0020808EBC208E0440AEB480C30F847
:103EE0000C00C0F30900834211D91B1AA3610FD043
:103EF000730407D52E6836F822303B4043EA0903A5
:103F000026F8223094F82420012A50D04EE1A161F5
:103F1000607810B1012813D01AE02868B0F850304A
:103F2000184400EB0210B0F8042422F4F842A0F880
:103F30000424B0F8042442F40042A0F8042407E06A
:103F40002868B0F85030184400EB0210A0F80414B0
:103F50006278286812B1012A11D018E0B0F8501028
:103F60000844217800EB0110B0F80C1421F4F8415A
:103F7000A0F80C14B0F80C1441F4004105E0B0F8BE
:103F800050201044227800EB0210A0F80C14217885
:103F90002846FFF7AAFE7004B8D521782A6832F8BF
:103FA0002100384040EA090022F82100FEE0626961
:103FB00002446261E2690244E2612369226A9A4230
:103FC00003D31846111A04E038E084F824100AB12B
:103FD00010462162617811B1012923D02BE02968B4
:103FE000B1F850201144227801EB021101F2044192
:103FF00048B13E280FD84208C30700D0521C0BEA34
:1040000082220A8017E00A8822F4F8420A800A888D
:1040100042F40042F5E74209C30600D1521E4EEABF
:104020008222EEE72968B1F850201144227801EB92
:104030000211A1F8040483B22289B3E04FF006080C
:1040400008EBC208E0440AEB480C30F80C00C0F35F
:104050000900834211D31B1AA3610FD0730407D444
:104060002E6836F822303B4043EA090326F8223016
:1040700094F82420012A50D098E0A161607810B112
:10408000012813D01AE02868B0F85030184400EB2B
:104090000210B0F8042422F4F842A0F80424B0F886
:1040A000042442F40042A0F8042407E02868B0F891
:1040B0005030184400EB0210A0F80414627828680D
:1040C00012B1012A11D018E0B0F85010084421783C
:1040D00000EB0110B0F80C1421F4F841A0F80C1416
:1040E000B0F80C1441F4004105E0B0F85020104441
:1040F000227800EB0210A0F80C1421782846FFF774
:10410000F4FD700452D42278296831F82200384036
:1041100040EA090021F8220048E062690244626135
:10412000E2690244E2612369226A9A4203D3184693
:10413000111A216204E00AB11046216284F82410A9
:104140006278296812B1012A22D029E0B1F8502002
:104150001144227801EB021101F20C4148B13E28D2
:104160000FD84208C30700D0521C0BEA82220A80F3
:1041700016E00A8822F4F8420A800A8842F40042D3
:10418000F5E74209C30600D1521E4EEA8222EEE74D
:10419000B1F850201144227801EB0211A1F80C046F
:1041A000628983B26169286803F094F821782A68EB
:1041B00032F8210048F6BF73184080F0300048F212
:1041C0008003184322F821000020BDE8F09F01F091
:1041D000070101EB810100EBC100D0F884017047B9
:1041E0002DE9F04104460F0601F0070000EB8001C5
:1041F00004EBC1014FF001064FF0000503D581F833
:104200002960283103E081F8695101F5B471087023
:104210000A61CB704A7802B1C881022B00D10D71BE
:1042200094F8A802012809D084F8A862206802F056
:10423000F3FA284684F8A852BDE8F0810220FBE793
:1042400070B50C4601F0070505EB850100EBC101D7
:10425000C1E95F230022C1F8842181F8692181F836
:10426000685101F5B4716207006802F0F5FC0020A6
:1042700070BD70B504460D4601F0070061688842C4
:1042800001D9012070BD29064FF000064FF0010250
:1042900007D500EB800104EBC10181F8292028310A
:1042A00007E005EB850104EBC10181F8696101F5C7
:1042B000B4718A70087094F8A802012807D084F8B5
:1042C000A822206802F0AFFC680702D006E00220B6
:1042D00070BD04F52C71206802F067FC84F8A862B8
:1042E000002070BD70B50C4601F0070505EB850197
:1042F00000EBC101C1E90F23012281F84C208B643E
:1043000000234B6481F8292001F8285F62070068C8
:1043100002F0A2FC002070BD1FB50446006802F048
:10432000B7FF000402D5204601F0D2F8206802F061
:10433000AFFF40050CD5206830F8441F21F48061A0
:104340000180204600F026F90021204600F03DF9CA
:10435000206802F09DFF400405D5206830F8441F16
:1043600021F480410180206802F092FF800405D58D
:10437000206830F8441F21F400510180206802F0C9
:1043800087FFC00414D5206830F8401F21F00401D5
:104390000180206830F8401F21F00801018020468C
:1043A00000F00BF9206830F8441F21F4805101809F
:1043B000206802F06DFF00053ED5226800206946A6
:1043C00032F8203021F81030401CC0B20828F7D352
:1043D00032F8400F40F001001080206830F8402F84
:1043E00022F0010202802068B0F844205205FBD57B
:1043F00030F8442F22F4806202800020236831F8D4
:10440000102023F82020401CC0B20828F6D32068D2
:1044100030F8401F41F008010180206830F8441F47
:1044200021F400610180206830F8401F41F0040150
:104430000180204600F0FEF8206802F029FF800588
:1044400008D5206830F8441F21F40071018020460F
:1044500000F0B7F8206802F01BFFC00505D5206802
:1044600030F8441F21F4807101801FBD2DE9F04117
:1044700086B0040004D094F8A902002520B108E019
:10448000012006B0BDE8F08184F8A852204600F073
:104490005BF8032084F8A902206802F07FFB04F196
:1044A0001001142288466846FBF7C1FF94E80F000C
:1044B00002F0DEFA0226D0BB0021206802F002FFE3
:1044C000002001270FE000BF00EB800104EBC101D9
:1044D00081F8297001F8280FC881CD700D614D61F8
:1044E000401CC0B28D6161688142EDD8002011E0AE
:1044F00000EB800104EBC10181F8695181F868018A
:1045000081F86B51C1F87851C1F87C51401CC0B2A0
:10451000C1F8805161688142EAD814224146684658
:10452000FBF785FF94E80F0002F02FFB10B184F831
:10453000A962A5E784F8245084F8A972206802F0E3
:1045400022FB00209DE7000008B500680F49884263
:104550001AD10F48C16941F40001C161C06900224C
:1045600000F40000009005211320FFF76DFB1320DD
:10457000FFF75CFB002205211420FFF765FBBDE877
:1045800008401420FFF752BB08BD0000005C00404B
:104590000010024070B5044680680125022801D051
:1045A000FEF766FE2946D4F8E80201F00CFFD4F8C5
:1045B000E802BDE8704001F0C8BED0F8E80201F0A2
:1045C000ECBED0F8E80201F0F2BE10B5044690F857
:1045D000A80201280BD0012084F8A80284F8241036
:1045E000206802F071FE002084F8A80210BD0220AD
:1045F00010BDD0F8E82200F52C71104601F0EFBE96
:1046000010B5044690F8A802012810D0012084F8C3
:10461000A802206802F026FE01212046FFF764FB75
:10462000206802F0AEFA002084F8A80210BD022033
:1046300010BD000010B50446D0F8E80201F00EFFEE
:10464000A069002804D00348016841F00601016018
:1046500010BD000010ED00E02DE9F843054600789C
:10466000354CC00754D0E0690026C00008D4E0698A
:1046700040F08050E061E069012600F08050009039
:104680002E480168C90512D40168804641F4807142
:104690000160FFF707FA074605E000BFFFF702FADF
:1046A000C01B642823D8D8F80000C005F6D5206ABE
:1046B00010F4407021D0A98801F4407181421CD0CF
:1046C000206A1F49012220F440700A6000220A601B
:1046D0002062C00711D0FFF7E5F9074641F288389C
:1046E00008E000BFFFF7DEF9C11B414502D90320F6
:1046F000BDE8F883206A8007F4D5206A696820F451
:104700004070084320621EB1E06920F08050E061F3
:104710002878800705D56068A96820F440400843E0
:1047200060602878C00605D56068E96820F48000DC
:10473000084360600020DBE700100240007000408A
:10474000400442422DE9F0470F46050061D0434E38
:10475000306800F00700B84209D2306820F0070046
:1047600038433060306800F00700B84251D1286803
:104770003B4C810712D5400703D5606840F4E060E8
:1047800060602878000703D5606840F4605060607E
:104790006068A96820F0F000084360602878C007CE
:1047A00028D06868012810D02168022810D0890715
:1047B00000292EDA616821F0030101436160FFF7EF
:1047C00071F9804641F288390DE021688903EFE7ED
:1047D0008901EDE7FFF766F9A0EB0801494502D929
:1047E0000320BDE8F0876068696800F00C00B0EB5A
:1047F000810FEFD1306800F00700B8420BD9306864
:1048000020F0070038433060306800F00700B842FD
:1048100001D00120E5E72878400705D56068E96800
:1048200020F4E060084360602878000706D56068DF
:10483000296920F4605040EAC100606000F05EF831
:104840006168084AC1F30311515CC8400649086019
:1048500006480068FFF77AF90020C2E7002002400E
:1048600000100240D08C00088C0000208400002042
:104870000F2202600C4A536803F00303436053683D
:1048800003F0F0038360536803F4E063C36052688D
:104890004FF4E06303EAD20202610448006800F0CA
:1048A000070008607047000000100240002002402E
:1048B00001480068704700008C000020044805494A
:1048C00000684968044AC1F30221515CC84070473E
:1048D0008C00002000100240E08C000804480549CC
:1048E00000684968044AC1F3C221515CC84070475E
:1048F0008C00002000100240E08C000812A185B05E
:104900000FC98DE80F0014A0144A00680490516884
:10491000134801F00C03042B10D0082B0ED1C1F367
:104920008343C9031DF803000AD5516804AAC1F3E3
:104930004041515C0A4A5043B0FBF1F005B070476A
:1049400008494843FAE7000002030405060708097E
:104950000A0B0C0D0E0F1010010200000010024097
:1049600000127A0000093D002DE9F84F040070D0D4
:104970002078C04DC00749D06868C0F38100012885
:1049800007D06868C0F38100022809D16868C003B5
:1049900006D52868800339D560680028E7D035E05F
:1049A0006068B0F5803F0BD010B1B0F5A02F11D0EA
:1049B000286820F480302860286820F4802002E0F5
:1049C000286840F480302860606890B1FFF76AF88A
:1049D00006460AE0286840F480202860F0E700BF1F
:1049E000FFF760F8801B642873D828688003F7D528
:1049F0000CE0FFF757F8064605E000BFFFF752F856
:104A0000801B6428F0D828688003F7D420789A4E59
:104A100080074FF001094FF0000839D5686810F0A1
:104A20000C0F07D06868C0F38100022809D16868BC
:104A3000C00306D42868800714D52069012808D14E
:104A400010E02069B0B1C6F80090FFF72BF80746D8
:104A500005E00AE1FFF726F8C01B0228C4D8286841
:104A60008007F7D52868616920F0F80040EAC100A6
:104A700028600DE0C6F80080FFF714F8074604E050
:104A8000FFF710F8C01B022823D828688007F7D446
:104A9000207800072CD57948A169D9B1C0F80090D9
:104AA000FFF700F8074604E0FEF7FCFFC01B0228F2
:104AB0000FD8686A8007F7D571484FF4FA5100683B
:104AC000B0FBF1F0009000BF0098411E0091FAD2B7
:104AD0000EE080E0C0F80080FEF7E4FF074604E047
:104AE000FEF7E0FFC01B022875D8686A8007F7D47C
:104AF0002078400760D5E8690027C00008D4E8693D
:104B000040F08050E861E869012700F08050009093
:104B10005C480168C90513D40168834641F480717B
:104B20000160FEF7BFFF824606E000BFFEF7BAFF56
:104B3000A0EB0A0064284ED8DBF80000C005F5D5CC
:104B4000E06801280AD008B1052813D0286A20F0AF
:104B500001002862286A20F0040002E0286A40F080
:104B600001002862E06841F2883B98B1FEF79AFFA5
:104B700082460BE0286A40F004002862EEE700BF9E
:104B8000FEF790FFA0EB0A0159455AD8286A800722
:104B9000F6D50CE0FEF786FF824605E0FEF782FFC1
:104BA000A0EB0A0159454CD8286A8007F6D41FB1FA
:104BB000E86920F08050E861E06988B36968C1F372
:104BC0008101022944D00228C6F8608004D0FEF793
:104BD00069FF044638E034E0FEF764FF074604E06E
:104BE000FEF760FFC01B02282BD828688001F7D48D
:104BF000206AB0F5803F05D16868A16820F40030D4
:104C000008436860D4E908010843696821F4741115
:104C100008436860C6F86090FEF744FF044606E06B
:104C200025E000BFFEF73EFF001B022809D82868D8
:104C30008001F7D51BE000BFFEF734FF001B022800
:104C400002D90320BDE8F88F28688001F4D40EE073
:104C50000128F7D06868226A00F48031914204D1BB
:104C6000616A00F47010884201D00120EAE7002058
:104C7000E8E7000000100240000042428004424287
:104C80008C000020007000407047704710B5040091
:104C900003D094F83D0010B107E0012010BD0020C2
:104CA00084F83C00204600F01EF8022084F83D0005
:104CB000211D206800F014FE012084F8460084F8CD
:104CC0003E0084F83F0084F8400084F8410084F8F6
:104CD000420084F8430084F8440084F8450084F8D6
:104CE0003D00002010BD704790F83D10012901D013
:104CF00001207047022180F83D100168CA6842F027
:104D00000102CA6000680B49884208D0B0F1804FA8
:104D100005D00949884202D00849884204D18168F7
:104D200001F00701062903D0016841F0010101608B
:104D300000207047002C01400004004000080040A3
:104D4000704770B50446006801694FF00005C9431B
:104D5000890715D4C168C943890711D4E91E0161C7
:104D600001202077206880698007204602D0FFF765
:104D7000E7FF04E000F098F8204600F096F8257769
:104D800020680169C943490717D4C168C943490765
:104D900013D46FF00401016102202077206880693C
:104DA00010F4407F204602D0FFF7CAFF04E000F075
:104DB0007BF8204600F079F8257720680169C9431F
:104DC000090716D4C168C943090712D46FF0080156
:104DD0000161042020772068C0698007204602D046
:104DE000FFF7AEFF04E000F05FF8204600F05DF84A
:104DF000257720680169C943C90617D4C168C9432A
:104E0000C90613D46FF010010161082020772068D3
:104E1000C06910F4407F204602D0FFF791FF04E004
:104E200000F042F8204600F040F82577206801693C
:104E3000C943C90708D1C168C943C90704D1891E3C
:104E40000161204600F032F820680169C943090673
:104E500009D4C168C943090605D46FF08001016116
:104E60002046FFF711FF20680169C943490609D4AC
:104E7000C168C943490605D46FF04001016120466D
:104E800000F01EF820680169C94389060BD4C16887
:104E9000C943890607D46FF0200101612046BDE8AF
:104EA0007040FFF7F2BE70BD70477047006803495D
:104EB000884201D1FEF730BE704700000004004078
:104EC000704770B5040004D094F83D00002510B17F
:104ED00006E0012070BD84F83C50204600F022F826
:104EE000242084F83D002068C16821F40051C1608D
:104EF000204600F02BFD2068016921F490410161FA
:104F00002068416921F02A0141612068C16841F4AB
:104F10000051C1602564202084F83D0084F83E00E3
:104F2000002070BD30B585B0002400940194029437
:104F3000039400681449884224D11448816941F4DB
:104F400080418161816901F480410491816941F06E
:104F50000401816180690E4D00F0040004904FF45B
:104F600000700090022001900320039069462846BB
:104F7000FEF796FC2815CDE9000469462846029400
:104F8000FEF78EFC05B030BD003801400010024035
:104F90000008014070B540F34012164D0446402110
:104FA0002846521CFEF779FD44F300128021284662
:104FB000521CFEF772FD44F3C002A9152846521C8C
:104FC000FEF76BFD44F3800269152846521CFEF77C
:104FD00064FD44F3400229152846521CFEF75DFD8E
:104FE00044F30002E9142846BDE87040521CFEF765
:104FF00054BD0000000C014070B540F34012164D46
:10500000044601212846521CFEF747FD44F30012D6
:1050100002212846521CFEF740FD44F3C002042141
:105020002846521CFEF739FD44F380020821284629
:10503000521CFEF732FD44F3400210212846521C58
:10504000FEF72BFD44F300022846BDE87040202106
:10505000521CFEF722BD00000008014010B50400FC
:105060000BD07E2C01D97E2401E03F2C05D93F20B6
:10507000FFF790FF3F3CE0B202E0FFF78BFF00201C
:10508000BDE81040FFF7B8BFFEE70000F0B5002311
:105090000A24302537261F4611E000BFB4EB107FED
:1050A00002D905EB107C01E006EB107C01F813C07F
:1050B00001EB430C00015B1C8CF80170DBB29342E6
:1050C000ECD3F0BD3EB50021174800910191154A7F
:1050D0000291026092158260012404730175022519
:1050E0004FF460220561C2614160FEF75DF908B1CD
:1050F000FEF7BEF80820CDE90004032002906946BF
:105100000948FEF7CFF808B1FEF7B2F80920CDE95B
:10511000000569460448FEF7C5F8002801D0FEF7EF
:10512000A7F83EBD0024014058040020094808B5F6
:10513000416941F0010141614069002200F0010034
:10514000009005210B20FEF77FFDBDE808400B20F5
:10515000FEF76CBD0010024010B59CB01C22164931
:105160006846FBF764F90021684602F07BFA134CAD
:1051700011491C22A0601C3107A8FBF758F9002137
:1051800007A802F06FFA0C49E0601C2238310EA823
:10519000FBF74DF900210EA802F064FA06492061E0
:1051A0001C22543115A8FBF742F9002115A802F082
:1051B00059FA60611CB010BD608C0008000000202E
:1051C0002DE9F04786B000243448009401940294FD
:1051D0000394816941F010018161816901F010013E
:1051E0000491816941F020018161816901F0200110
:1051F0000491816941F004018161816901F0040138
:105200000491816941F0080181618069DFF8908033
:1052100000F008004FF40055049000222946404653
:10522000FEF73BFCDFF87C9001223F214846FEF769
:1052300034FC002248F280014846FEF72EFCDFF8DD
:1052400068A04FF47C67012239465046FEF725FCE2
:105250000095022601250396CDE901546946404692
:10526000FEF71EFB48F2BF00CDE90005CDE902467E
:1052700069464846FEF714FB00970396CDE90154B2
:1052800069465046FEF70CFB38208DE83100694630
:105290005046FEF705FB06B0BDE8F087001002405F
:1052A0000010014000080140000C0140094810B501
:1052B00007490160042141604FF47A718160FEF773
:1052C000F7FB002803D0BDE81040FDF7D1BF10BDAB
:1052D00000300040CC0400200C4810B50A490160A1
:1052E0004FF4E1314160002181600C22C160C0E9CE
:1052F00004128161C161FFF7E4FD002803D0BDE81D
:105300001040FDF7B5BF10BD00380140D8040020A3
:1053100010B500220F49104800F0E2FE08B1FDF779
:10532000A7FF0E490C4801F0BFF808B1FDF7A0FF38
:105330000B49094800F0E0FC08B1FDF799FF064869
:1053400001F008F9002803D0BDE81040FDF790BF38
:1053500010BD00001C00002064050020CC010020CE
:105360006C0000203E4D08B53E49286800240844E2
:105370003D49884201D33D482860FDF7E5FA286899
:10538000FDF73EFB286803F0DBF802460B4638A029
:1053900002F0E6FB1426DFF8F490DFF8F4B03227D1
:1053A00041F2707842F2107A94FBF6F006FB10405E
:1053B000E0B94FF400413748FEF767FB36480088F4
:1053C00003F050FA354903F061FA6FF00B0103F076
:1053D00002FC3349884204DC80212E48FEF755FB4D
:1053E00004E0002280212B48FEF757FB94FBF7F0E6
:1053F00007FB104010B92B48FEF787FB94FBF8F130
:1054000008FB114014280CD1274802F0A9FB28689A
:1054100003F096F86A68009202460B4623A002F059
:105420009FFB94FBF9F109FB1141514504D1FDF7B4
:105430008BFA2868FDF7E4FA94FBFBF10BFB1141B2
:10544000A1F59850883802D12868FDF7D9FA1E488E
:10545000641C844200DD00240A2002F0F7F8A3E770
:10546000000000200000F4BD00807D0300003844EF
:1054700043757272656E74204672657175656E63F0
:10548000793D20252E32660D0A00000080EE3600A0
:10549000407E0500000801401800002033335340CF
:1054A0006666663FCC0400202C8E0008467265714B
:1054B00075656E63793D252E326620617474656E64
:1054C0003D2564200D0A000000D68300FEE7FEE7BC
:1054D0002DE9F84F044640F68F7B48F60F7A4FF0DF
:1054E00002094FF4806874E1B0F8441011F00F061F
:1054F0003AD030F8267039047DD530F8261001EA0C
:105500000B0141F0800120F8261006EB860004EB29
:10551000C00595F8740105F5B47500286CD0E878DD
:1055200002286AD02878226832F8201048F68F7353
:10553000194048F2C003194322F820102878D4F803
:1055400000C03CF82010BCF8502049047ED509EB7F
:10555000C000111808EB41003CF800008005800DE8
:10556000009074D02A89D8E0C9062DD4018801EAB8
:105570000A0141F400410180216804F12805B1F8D5
:1055800050202B7809EBC300024408EB4200085A74
:10559000C0F309006064E16B0844E0630021204629
:1055A000FEF7A3FB94F8240000289CD0A8690028EB
:1055B00099D194F82400216840F08000A1F84C00B3
:1055C000002084F8240004E1018804F5B4750A057C
:1055D00021D5B0F850202B78062101EBC3010A44F5
:1055E00008EB4201405A04F52C71C0F30903EB614A
:1055F000EA88206802E0ACE068E07AE001F04CFE66
:105600002168088800EA0B0040F0800008802046EE
:10561000FEF7EFFFDDE00904D5D5018801EA0B01B3
:1056200041F0800101802068B0F850202B780621DD
:1056300001EBC3010A4408EB4201405A83059B0D6C
:10564000EB6110D0696971B1EA8801E058E056E079
:10565000206801F021FEE969686908446861002159
:105660002046FEF74BFB2068018809052DD4B0F8D1
:1056700050100844296900F20C4051B13E2910D85D
:105680004A08C90700D0521C4FF6FF7101EA822177
:105690000FE0018821F4F8410180018841F40041C4
:1056A00007E04A09C90600D1521E4FF4004141EA01
:1056B00082210180206801884BF68F72114081F4AD
:1056C000405148F280021143018082E0D4F800C0CA
:1056D000BCF850102A78062000EBC200014408EB09
:1056E00041003CF800008005800D00901AD0EA8847
:1056F00013E03A4629462046FEF75EFB009011E093
:10570000062101EBC000111808EB41003CF8000035
:105710008005800D009005D06A890346604669695E
:1057200001F0BAFDE96900980844E86169690098E8
:1057300008446861A86918B129690098814204D9B0
:1057400029782046FEF7DAFA03E02946206801F0BE
:1057500083FA38063DD506EB860004EBC0012068CD
:1057600030F8262002EA0A0242F4004220F82620FD
:1057700091F82B002831032804D018B1022824D135
:10578000F80522D42368B3F850200D7809EBC50042
:10579000024408EB4200185A8A69C0F309008242A9
:1057A0000CD9121A8A610BD04A6902444A61CA694B
:1057B0001044C861206801F04FFA0AE000208861B7
:1057C000E9B22046FEF791FA03E03A462046FEF79A
:1057D00066FB2068B0F8441009043FF585AE002050
:1057E000BDE8F88F70B50A4D08212846FEF748F944
:1057F000044610212846FEF743F904EB400420211B
:105800002846FEF73DF904EB8000C0B270BD0000F1
:10581000000C0140FFF77CFD012001F017FFFBE7C2
:1058200010B5502080F31188BFF34F8FBFF36F8FF7
:1058300002F034FC18B104494FF080500860002099
:1058400080F3118810BD000004ED00E030B593B086
:1058500028216846FAF71DFE14210AA8FAF719FE56
:1058600000240F94092001211094009011941294A7
:105870004FF4803004910691CDE901040225CDE971
:1058800007504FF4E01009906846FFF76DF808B133
:1058900072B6FEE70F20CDE90A054FF48060CDE92E
:1058A0000C4002210AA80E94FEF74CFF08B172B614
:1058B000FEE712200F904FF44040CDE911040FA8ED
:1058C000FEF7CAFE002801D072B6FEE713B030BD65
:1058D000704700000148FFF734BA00001C050020A3
:1058E000F0B50268164B174C174D4FF080479842A1
:1058F00005D0B84203D0A04201D0A84203D122F083
:1059000070064A683243984205D0B84203D0A0429C
:1059100001D0A84203D122F44074CA6822434C69E2
:1059200022F08002224302608A68C2620A688262B0
:10593000984201D10969016301214161F0BD000074
:10594000002C0140000400400008004070B50446EF
:1059500000680169E26821F4405111430161216945
:10596000A0680843616908432168CA6841F20C6372
:105970009A430243CA6020684169A26921F44071D8
:10598000114341611E492068884202D1FEF7A6FFFB
:1059900001E0FEF793FF00EBC00101EB001260682D
:1059A00064218000B2FBF0F3B3FBF1F36FF0180653
:1059B0007343B2FBF0F5B2FBF0F605EB830532233F
:1059C00003EB0515B5FBF1F5B6FBF1F605F0F005B7
:1059D00005EB0615B2FBF0F6B2FBF0F0B0FBF1F010
:1059E0006FF01802504306EB800003EB0010B0FB91
:1059F000F1F0216800F00F002844886070BD0000BD
:105A00000038014088B0294C4FF0FF376E46002522
:105A10003946012002F070F8012843D12268002A9B
:105A200040D0234923A002F09BF82168881E092852
:105A300003D329A002F094F833E000201C4A02E0CE
:105A4000135C3354401C8842FAD375549DF800000F
:105A5000662802D0612802D004E0462000E0412000
:105A60008DF8000021A16846FAF78AFCC8B16846A3
:105A7000FDF700FC804610F1814F0DD0FCF7C0FF10
:105A80001B494046C1F8008002F05AFD02460B4611
:105A900018A002F065F802E01CA002F061F88DF891
:105AA00000502560142001F0D1FDB1E77C000020FA
:105AB000280A0020726563657669656420636F6DEE
:105AC0006D616E643D202573202072786C656E20B8
:105AD0003D2025640D0A00004C656E6774682057F0
